{
  "contractName": "FriendsWithBenefits",
  "abi": [
    {
      "inputs": [],
      "payable": false,
      "stateMutability": "nonpayable",
      "type": "constructor"
    },
    {
      "anonymous": false,
      "inputs": [
        {
          "indexed": true,
          "internalType": "uint256",
          "name": "_candidateId",
          "type": "uint256"
        }
      ],
      "name": "votedEvent",
      "type": "event"
    },
    {
      "constant": true,
      "inputs": [],
      "name": "crew",
      "outputs": [
        {
          "internalType": "uint256",
          "name": "",
          "type": "uint256"
        }
      ],
      "payable": false,
      "stateMutability": "view",
      "type": "function"
    },
    {
      "constant": true,
      "inputs": [
        {
          "internalType": "uint256",
          "name": "",
          "type": "uint256"
        }
      ],
      "name": "friends",
      "outputs": [
        {
          "internalType": "uint256",
          "name": "id",
          "type": "uint256"
        },
        {
          "internalType": "string",
          "name": "name",
          "type": "string"
        },
        {
          "internalType": "string",
          "name": "chaudacity",
          "type": "string"
        },
        {
          "internalType": "string",
          "name": "restrictions",
          "type": "string"
        },
        {
          "internalType": "uint256",
          "name": "violations",
          "type": "uint256"
        }
      ],
      "payable": false,
      "stateMutability": "view",
      "type": "function"
    },
    {
      "constant": true,
      "inputs": [
        {
          "internalType": "address",
          "name": "",
          "type": "address"
        }
      ],
      "name": "voters",
      "outputs": [
        {
          "internalType": "bool",
          "name": "",
          "type": "bool"
        }
      ],
      "payable": false,
      "stateMutability": "view",
      "type": "function"
    },
    {
      "constant": false,
      "inputs": [
        {
          "internalType": "uint256",
          "name": "_index",
          "type": "uint256"
        }
      ],
      "name": "getCrew",
      "outputs": [],
      "payable": false,
      "stateMutability": "nonpayable",
      "type": "function"
    },
    {
      "constant": false,
      "inputs": [
        {
          "internalType": "uint256",
          "name": "_index",
          "type": "uint256"
        }
      ],
      "name": "breachOfContract",
      "outputs": [],
      "payable": false,
      "stateMutability": "nonpayable",
      "type": "function"
    },
    {
      "constant": false,
      "inputs": [
        {
          "internalType": "uint256",
          "name": "_index",
          "type": "uint256"
        }
      ],
      "name": "revokeBreach",
      "outputs": [],
      "payable": false,
      "stateMutability": "nonpayable",
      "type": "function"
    },
    {
      "constant": false,
      "inputs": [
        {
          "internalType": "uint256",
          "name": "_index",
          "type": "uint256"
        }
      ],
      "name": "eraseRecord",
      "outputs": [],
      "payable": false,
      "stateMutability": "nonpayable",
      "type": "function"
    }
  ],
  "bytecode": "0x608060405234801561001057600080fd5b506100c66002546040518060400160405280600a81526020017f467269656e6420303030000000000000000000000000000000000000000000008152506040518060400160405280600581526020017f416c7068610000000000000000000000000000000000000000000000000000008152506040518060400160405280601681526020017f4e6f207261772064617767696e2072616e646f6d732e0000000000000000000081525060646102ea60201b60201c565b61017b6002546040518060400160405280600a81526020017f467269656e6420303031000000000000000000000000000000000000000000008152506040518060400160405280600c81526020017f42657461204f72626974657200000000000000000000000000000000000000008152506040518060400160405280600c81526020017f4e6f20637564646c696e672e000000000000000000000000000000000000000081525060006102ea60201b60201c565b6102306002546040518060400160405280600a81526020017f467269656e6420303130000000000000000000000000000000000000000000008152506040518060400160405280600581526020017f54686574610000000000000000000000000000000000000000000000000000008152506040518060400160405280601381526020017f4e6f20736861726564206665656c696e67732e0000000000000000000000000081525060016102ea60201b60201c565b6102e56002546040518060400160405280600a81526020017f467269656e6420303131000000000000000000000000000000000000000000008152506040518060400160405280600c81526020017f5a657461204f72626974657200000000000000000000000000000000000000008152506040518060400160405280601181526020017f4e6f20686f6c64696e672068616e64732e00000000000000000000000000000081525060006102ea60201b60201c565b610453565b6002600081548092919060010191905055506040518060a00160405280600254815260200185815260200184815260200183815260200182815250600080600254815260200190815260200160002060008201518160000155602082015181600101908051906020019061035f9291906103ae565b50604082015181600201908051906020019061037c9291906103ae565b5060608201518160030190805190602001906103999291906103ae565b50608082015181600401559050505050505050565b828054600181600116156101000203166002900490600052602060002090601f016020900481019282601f106103ef57805160ff191683800117855561041d565b8280016001018555821561041d579182015b8281111561041c578251825591602001919060010190610401565b5b50905061042a919061042e565b5090565b61045091905b8082111561044c576000816000905550600101610434565b5090565b90565b610663806104626000396000f3fe608060405234801561001057600080fd5b506004361061007d5760003560e01c8063893b8d331161005b578063893b8d331461010c578063a3ec138d1461013a578063cdf85b4014610196578063ce146828146101b45761007d565b806313976471146100825780631ae14419146100b057806385ca319b146100de575b600080fd5b6100ae6004803603602081101561009857600080fd5b8101908080359060200190929190505050610341565b005b6100dc600480360360208110156100c657600080fd5b810190808035906020019092919050505061036a565b005b61010a600480360360208110156100f457600080fd5b81019080803590602001909291905050506103e9565b005b6101386004803603602081101561012257600080fd5b81019080803590602001909291905050506103ec565b005b61017c6004803603602081101561015057600080fd5b81019080803573ffffffffffffffffffffffffffffffffffffffff16906020019092919050505061040a565b604051808215151515815260200191505060405180910390f35b61019e61042a565b6040518082815260200191505060405180910390f35b6101e0600480360360208110156101ca57600080fd5b8101908080359060200190929190505050610430565b60405180868152602001806020018060200180602001858152602001848103845288818151815260200191508051906020019080838360005b83811015610234578082015181840152602081019050610219565b50505050905090810190601f1680156102615780820380516001836020036101000a031916815260200191505b50848103835287818151815260200191508051906020019080838360005b8381101561029a57808201518184015260208101905061027f565b50505050905090810190601f1680156102c75780820380516001836020036101000a031916815260200191505b50848103825286818151815260200191508051906020019080838360005b838110156103005780820151818401526020810190506102e5565b50505050905090810190601f16801561032d5780820380516001836020036101000a031916815260200191505b509850505050505050505060405180910390f35b600080828152602001908152602001600020600401600081548092919060019003919050555050565b6000808281526020019081526020016000206004016000815480929190600101919050555060018060003373ffffffffffffffffffffffffffffffffffffffff1673ffffffffffffffffffffffffffffffffffffffff16815260200190815260200160002060006101000a81548160ff02191690831515021790555050565b50565b60008060008381526020019081526020016000206004018190555050565b60016020528060005260406000206000915054906101000a900460ff1681565b60025481565b6000602052806000526040600020600091509050806000015490806001018054600181600116156101000203166002900480601f0160208091040260200160405190810160405280929190818152602001828054600181600116156101000203166002900480156104e25780601f106104b7576101008083540402835291602001916104e2565b820191906000526020600020905b8154815290600101906020018083116104c557829003601f168201915b505050505090806002018054600181600116156101000203166002900480601f0160208091040260200160405190810160405280929190818152602001828054600181600116156101000203166002900480156105805780601f1061055557610100808354040283529160200191610580565b820191906000526020600020905b81548152906001019060200180831161056357829003601f168201915b505050505090806003018054600181600116156101000203166002900480601f01602080910402602001604051908101604052809291908181526020018280546001816001161561010002031660029004801561061e5780601f106105f35761010080835404028352916020019161061e565b820191906000526020600020905b81548152906001019060200180831161060157829003601f168201915b505050505090806004015490508556fea265627a7a7231582057cd2451578e8d623f41e0d7eac2bac7e587f2b6e67de3b12be219ce623bc5c064736f6c63430005100032",
  "source": "pragma solidity ^0.5.0;\n\ncontract FriendsWithBenefits{\n\n\t//Model a friend\n\tstruct Friend{\n\n\tuint id;\n\tstring name;\n\tstring chaudacity;\n\tstring restrictions;\n\tuint violations;\n\n\t}\n\n\t//Store Friends\n\t//Fetch Friends\n\tmapping(uint => Friend) public friends;\n\tmapping(address => bool) public voters;\n\n\t//Store friends count\n\tuint public crew;\n\n\t // voted event\n    event votedEvent (\n        uint indexed _candidateId\n    );\n\n\n\t//Constructor\n\tconstructor() public {\n\n\t\t//Automatically add friends to contract.\n\t\taddFriend(crew,\"Friend 000\",\"Alpha\",\"No raw dawgin randoms.\",100);\n\t\taddFriend(crew,\"Friend 001\",\"Beta Orbiter\",\"No cuddling.\",0);\n\t\taddFriend(crew,\"Friend 010\",\"Theta\",\"No shared feelings.\",1);\n\t\taddFriend(crew,\"Friend 011\",\"Zeta Orbiter\",\"No holding hands.\", 0);\n\n\t}\n\n\tfunction addFriend(uint _index, string memory _name, string memory _chaudacity,\n\t\tstring memory _restrictions, uint _violations) private {\n\t\tcrew ++;\n\n\t\tfriends[crew] = Friend(crew, _name, _chaudacity, _restrictions, _violations);\n\t}\n\n\tfunction getCrew(uint _index) public{\n\t\t//return friends[_index].value;\n\t}\n\n\tfunction breachOfContract(uint _index) public {\n\t\t//Update friend violations.\n\t\tfriends[_index].violations++;\n\n    // record that voter has voted\n    voters[msg.sender] = true;\n\t}\n\n\tfunction revokeBreach(uint _index) public {\n\t\t//Update friend violations.\n\t\tfriends[_index].violations--;\n\n\t\t// record that voter has voted\n\t\t//\tvoters[msg.sender] = true;\n\t}\n\n\tfunction eraseRecord(uint _index) public {\n\t\t//Update friend violations.\n\t\tfriends[_index].violations = 0;\n\t}\n\n}\n",
  "sourcePath": "/Users/locationzero/FriendsWBenefits/contracts/FriendsWithBenefits.sol",
  "compiler": {
    "name": "solc",
    "version": "0.5.16+commit.9c3226ce.Emscripten.clang"
  },
  "schemaVersion": "3.2.3",
  "updatedAt": "2021-02-22T19:56:43.960Z",
  "networkType": "ethereum",
  "devdoc": {
    "methods": {}
  },
  "userdoc": {
    "methods": {}
  }
}